{
  "address": "0x394e3aB3F392a6252C21FB46edBa4bEe52C0310b",
  "abi": [
    {
      "inputs": [
        {
          "internalType": "contract CARNFTInterface",
          "name": "_carNFT",
          "type": "address"
        },
        {
          "internalType": "contract IERC20",
          "name": "_paymentToken",
          "type": "address"
        },
        {
          "internalType": "uint256",
          "name": "_rentalRatePerSecond",
          "type": "uint256"
        },
        {
          "internalType": "address",
          "name": "_rentwallet",
          "type": "address"
        }
      ],
      "stateMutability": "nonpayable",
      "type": "constructor"
    },
    {
      "anonymous": false,
      "inputs": [
        {
          "indexed": true,
          "internalType": "address",
          "name": "renter",
          "type": "address"
        },
        {
          "indexed": true,
          "internalType": "uint256",
          "name": "carId",
          "type": "uint256"
        },
        {
          "indexed": false,
          "internalType": "uint256",
          "name": "startTime",
          "type": "uint256"
        }
      ],
      "name": "CarRented",
      "type": "event"
    },
    {
      "anonymous": false,
      "inputs": [
        {
          "indexed": true,
          "internalType": "address",
          "name": "renter",
          "type": "address"
        },
        {
          "indexed": true,
          "internalType": "uint256",
          "name": "carId",
          "type": "uint256"
        },
        {
          "indexed": false,
          "internalType": "uint256",
          "name": "endTime",
          "type": "uint256"
        },
        {
          "indexed": false,
          "internalType": "uint256",
          "name": "fee",
          "type": "uint256"
        }
      ],
      "name": "CarReturned",
      "type": "event"
    },
    {
      "anonymous": false,
      "inputs": [
        {
          "indexed": true,
          "internalType": "address",
          "name": "oldAddress",
          "type": "address"
        },
        {
          "indexed": true,
          "internalType": "address",
          "name": "newAddress",
          "type": "address"
        }
      ],
      "name": "NFTCollectionUpdated",
      "type": "event"
    },
    {
      "anonymous": false,
      "inputs": [
        {
          "indexed": true,
          "internalType": "address",
          "name": "previousOwner",
          "type": "address"
        },
        {
          "indexed": true,
          "internalType": "address",
          "name": "newOwner",
          "type": "address"
        }
      ],
      "name": "OwnershipTransferred",
      "type": "event"
    },
    {
      "anonymous": false,
      "inputs": [
        {
          "indexed": true,
          "internalType": "address",
          "name": "oldAddress",
          "type": "address"
        },
        {
          "indexed": true,
          "internalType": "address",
          "name": "newAddress",
          "type": "address"
        }
      ],
      "name": "PaymentTokenUpdated",
      "type": "event"
    },
    {
      "anonymous": false,
      "inputs": [
        {
          "indexed": true,
          "internalType": "address",
          "name": "oldAddress",
          "type": "address"
        },
        {
          "indexed": true,
          "internalType": "address",
          "name": "newAddress",
          "type": "address"
        }
      ],
      "name": "RentWalletUpdated",
      "type": "event"
    },
    {
      "inputs": [
        {
          "internalType": "uint256",
          "name": "id",
          "type": "uint256"
        }
      ],
      "name": "carExists",
      "outputs": [
        {
          "internalType": "bool",
          "name": "",
          "type": "bool"
        }
      ],
      "stateMutability": "view",
      "type": "function"
    },
    {
      "inputs": [],
      "name": "carNFT",
      "outputs": [
        {
          "internalType": "contract CARNFTInterface",
          "name": "",
          "type": "address"
        }
      ],
      "stateMutability": "view",
      "type": "function"
    },
    {
      "inputs": [
        {
          "internalType": "uint256",
          "name": "tokenId",
          "type": "uint256"
        }
      ],
      "name": "distributeToInvestors",
      "outputs": [],
      "stateMutability": "nonpayable",
      "type": "function"
    },
    {
      "inputs": [
        {
          "internalType": "uint256",
          "name": "",
          "type": "uint256"
        }
      ],
      "name": "earnings",
      "outputs": [
        {
          "internalType": "uint256",
          "name": "",
          "type": "uint256"
        }
      ],
      "stateMutability": "view",
      "type": "function"
    },
    {
      "inputs": [],
      "name": "owner",
      "outputs": [
        {
          "internalType": "address",
          "name": "",
          "type": "address"
        }
      ],
      "stateMutability": "view",
      "type": "function"
    },
    {
      "inputs": [],
      "name": "paymentToken",
      "outputs": [
        {
          "internalType": "contract IERC20",
          "name": "",
          "type": "address"
        }
      ],
      "stateMutability": "view",
      "type": "function"
    },
    {
      "inputs": [],
      "name": "renounceOwnership",
      "outputs": [],
      "stateMutability": "nonpayable",
      "type": "function"
    },
    {
      "inputs": [
        {
          "internalType": "uint256",
          "name": "carId",
          "type": "uint256"
        }
      ],
      "name": "rentCar",
      "outputs": [],
      "stateMutability": "nonpayable",
      "type": "function"
    },
    {
      "inputs": [],
      "name": "rentWallet",
      "outputs": [
        {
          "internalType": "address",
          "name": "",
          "type": "address"
        }
      ],
      "stateMutability": "view",
      "type": "function"
    },
    {
      "inputs": [],
      "name": "rentalRatePerSecond",
      "outputs": [
        {
          "internalType": "uint256",
          "name": "",
          "type": "uint256"
        }
      ],
      "stateMutability": "view",
      "type": "function"
    },
    {
      "inputs": [
        {
          "internalType": "uint256",
          "name": "",
          "type": "uint256"
        }
      ],
      "name": "rentals",
      "outputs": [
        {
          "internalType": "address",
          "name": "renter",
          "type": "address"
        },
        {
          "internalType": "uint256",
          "name": "startTime",
          "type": "uint256"
        },
        {
          "internalType": "bool",
          "name": "isActive",
          "type": "bool"
        }
      ],
      "stateMutability": "view",
      "type": "function"
    },
    {
      "inputs": [
        {
          "internalType": "uint256",
          "name": "carId",
          "type": "uint256"
        }
      ],
      "name": "returnCar",
      "outputs": [],
      "stateMutability": "nonpayable",
      "type": "function"
    },
    {
      "inputs": [
        {
          "internalType": "address",
          "name": "newOwner",
          "type": "address"
        }
      ],
      "name": "transferOwnership",
      "outputs": [],
      "stateMutability": "nonpayable",
      "type": "function"
    },
    {
      "inputs": [
        {
          "internalType": "address",
          "name": "newNFTCollection",
          "type": "address"
        }
      ],
      "name": "updateNFTCollection",
      "outputs": [],
      "stateMutability": "nonpayable",
      "type": "function"
    },
    {
      "inputs": [
        {
          "internalType": "address",
          "name": "newPaymentToken",
          "type": "address"
        }
      ],
      "name": "updatePaymentToken",
      "outputs": [],
      "stateMutability": "nonpayable",
      "type": "function"
    },
    {
      "inputs": [
        {
          "internalType": "address",
          "name": "newRentWallet",
          "type": "address"
        }
      ],
      "name": "updateRentWallet",
      "outputs": [],
      "stateMutability": "nonpayable",
      "type": "function"
    },
    {
      "inputs": [
        {
          "internalType": "uint256",
          "name": "newRate",
          "type": "uint256"
        }
      ],
      "name": "updateRentalRate",
      "outputs": [],
      "stateMutability": "nonpayable",
      "type": "function"
    }
  ],
  "transactionHash": "0x3ccc4caecddbdbd87fa018bef206da473eb39a98170747c98952c1246d298beb",
  "args": [
    "0x2C0F17383672b951B8e9dc9Eec901EEAE6934617",
    "0x2d2e2B50b95161CD4fCA1dCAaBD57e1A11ce2bFb",
    "1000000000000000000",
    "0xfCc69429171854F1E3Ef4cBF99d035815Ca7f5fB"
  ],
  "numDeployments": 6,
  "solcInputHash": "9e185d2d7cc5eff5146698de2db13c89",
  "bytecode": "0x608060405234801561001057600080fd5b50604051620011d6380380620011d6833981016040819052610031916100ea565b61003a33610082565b600180546001600160a01b039586166001600160a01b03199182161790915560028054948616948216949094179093556003919091556004805491909316911617905561013f565b600080546001600160a01b038381166001600160a01b0319831681178455604051919092169283917f8be0079c531659141344cd1fd0a4f28419497f9722a3daafe3b4186f6b6457e09190a35050565b6001600160a01b03811681146100e757600080fd5b50565b6000806000806080858703121561010057600080fd5b845161010b816100d2565b602086015190945061011c816100d2565b604086015160608701519194509250610134816100d2565b939692955090935050565b611087806200014f6000396000f3fe608060405234801561001057600080fd5b506004361061010b5760003560e01c80638da5cb5b116100a2578063e1e8aab711610071578063e1e8aab714610271578063ef9b3f2614610284578063efa46882146102a7578063f2f17bf5146102b0578063f2fde38b146102c357600080fd5b80638da5cb5b146101d75780639b5a54a2146101e8578063ac33c5e6146101fb578063af94a1d11461020e57600080fd5b80634cd611a7116100de5780634cd611a71461017b5780635ae108941461018e578063609660be146101bc578063715018a6146101cf57600080fd5b80630b756e911461011057806317f956e0146101255780633013ce29146101385780634ccf1b3414610168575b600080fd5b61012361011e366004610e0c565b6102d6565b005b610123610133366004610e0c565b6102e3565b60025461014b906001600160a01b031681565b6040516001600160a01b0390911681526020015b60405180910390f35b610123610176366004610e3a565b6105e6565b610123610189366004610e0c565b610666565b6101ae61019c366004610e0c565b60066020526000908152604090205481565b60405190815260200161015f565b60045461014b906001600160a01b031681565b61012361090e565b6000546001600160a01b031661014b565b6101236101f6366004610e3a565b610922565b610123610209366004610e3a565b6109a2565b61024a61021c366004610e0c565b6005602052600090815260409020805460018201546002909201546001600160a01b03909116919060ff1683565b604080516001600160a01b039094168452602084019290925215159082015260600161015f565b61012361027f366004610e0c565b610a22565b610297610292366004610e0c565b610c48565b604051901515815260200161015f565b6101ae60035481565b60015461014b906001600160a01b031681565b6101236102d1366004610e3a565b610cc8565b6102de610d41565b600355565b600081815260056020526040902060020154819060ff1661033f5760405162461bcd60e51b815260206004820152601160248201527010d85c881a5cc81b9bdd081c995b9d1959607a1b60448201526064015b60405180910390fd5b6000818152600560205260409020546001600160a01b031633146103a55760405162461bcd60e51b815260206004820152601860248201527f43616c6c6572206973206e6f74207468652072656e74657200000000000000006044820152606401610336565b6000828152600560205260408120600101546103c19042610e74565b905060006103ce82610d9b565b6002546040516370a0823160e01b815233600482015291925082916001600160a01b03909116906370a0823190602401602060405180830381865afa15801561041b573d6000803e3d6000fd5b505050506040513d601f19601f8201168201806040525081019061043f9190610e87565b101561048d5760405162461bcd60e51b815260206004820152601e60248201527f496e73756666696369656e74206465706f73697465642062616c616e636500006044820152606401610336565b600254600480546040516323b872dd60e01b815233928101929092526001600160a01b03908116602483015260448201849052909116906323b872dd906064016020604051808303816000875af11580156104ec573d6000803e3d6000fd5b505050506040513d601f19601f820116820180604052508101906105109190610ea0565b6105565760405162461bcd60e51b815260206004820152601760248201527614185e5b595b9d081d1c985b9cd9995c8819985a5b1959604a1b6044820152606401610336565b600084815260056020908152604080832060028101805460ff1916905580546001600160a01b031916815560010183905560069091528120805483929061059e908490610ec2565b90915550506040805142815260208101839052859133917fded66b6d827438d952571acdc5f0eee4e999e03777ddd7a1237f34d0c99cfd81910160405180910390a350505050565b6105ee610d41565b6001600160a01b0381166106145760405162461bcd60e51b815260040161033690610ed5565b600280546001600160a01b038381166001600160a01b0319831681179093556040519116919082907f5efdfedf5aef119c431263f0656093045dffdf44b3d8f1b0f158dc295c3a0f8e90600090a35050565b61066e610d41565b60008181526006602052604090205468056bc75e2d631000008110156106e85760405162461bcd60e51b815260206004820152602960248201527f4e6f7420656e6f75676820746f6b656e73206561726e65642062792074686973604482015268081d1bdad95b88125160ba1b6064820152608401610336565b60015460405163a584ab2960e01b8152600481018490526000916001600160a01b03169063a584ab2990602401600060405180830381865afa158015610732573d6000803e3d6000fd5b505050506040513d6000823e601f3d908101601f1916820160405261075a9190810190610f24565b905060008151116107b75760405162461bcd60e51b815260206004820152602160248201527f4e6f206f776e65727320666f756e6420666f72207468697320746f6b656e20496044820152601160fa1b6064820152608401610336565b600060646107c684605f610fe9565b6107d09190611000565b905060008251826107e19190611000565b905060005b83518110156108f85760025460045485516001600160a01b03928316926323b872dd92169087908590811061081d5761081d611022565b60209081029190910101516040516001600160e01b031960e085901b1681526001600160a01b03928316600482015291166024820152604481018590526064016020604051808303816000875af115801561087c573d6000803e3d6000fd5b505050506040513d601f19601f820116820180604052508101906108a09190610ea0565b6108e65760405162461bcd60e51b815260206004820152601760248201527614185e5b595b9d081d1c985b9cd9995c8819985a5b1959604a1b6044820152606401610336565b806108f081611038565b9150506107e6565b5050506000928352505060066020526040812055565b610916610d41565b6109206000610dbc565b565b61092a610d41565b6001600160a01b0381166109505760405162461bcd60e51b815260040161033690610ed5565b600180546001600160a01b038381166001600160a01b0319831681179093556040519116919082907f13469794074d1f5e51806a82e18f511e432036fb5e45dee72251cfa45134f2d290600090a35050565b6109aa610d41565b6001600160a01b0381166109d05760405162461bcd60e51b815260040161033690610ed5565b600480546001600160a01b038381166001600160a01b0319831681179093556040519116919082907f2368d58d13c15ef7239101a65c9b0f9cc15f5b762f6dc058497acb08536106fe90600090a35050565b610a2b81610c48565b610a6b5760405162461bcd60e51b815260206004820152601160248201527018d85c88191bd95cdb89dd08195e1a5cdd607a1b6044820152606401610336565b60008181526005602052604090206002015460ff1615610ac55760405162461bcd60e51b815260206004820152601560248201527410d85c881a5cc8185b1c9958591e481c995b9d1959605a1b6044820152606401610336565b6002546040516370a0823160e01b815233600482015268c328093e61ee400000916001600160a01b0316906370a0823190602401602060405180830381865afa158015610b16573d6000803e3d6000fd5b505050506040513d601f19601f82011682018060405250810190610b3a9190610e87565b1015610bae5760405162461bcd60e51b815260206004820152603860248201527f596f75206e656564206174206c65617374206f6e6520646179277320776f727460448201527f68206f6620746f6b656e7320666f722072656e74696e672e00000000000000006064820152608401610336565b60408051606081018252338082524260208084018281526001858701818152600089815260058552889020965187546001600160a01b0319166001600160a01b03909116178755915190860155516002909401805460ff1916941515949094179093559251928352839290917f6c85043a6fb4099fe8bb0eaa93864f46ef1edc7390a41a47414701581f377a9b910160405180910390a350565b60015460405163a584ab2960e01b81526004810183905260009182916001600160a01b039091169063a584ab2990602401600060405180830381865afa158015610c96573d6000803e3d6000fd5b505050506040513d6000823e601f3d908101601f19168201604052610cbe9190810190610f24565b5115159392505050565b610cd0610d41565b6001600160a01b038116610d355760405162461bcd60e51b815260206004820152602660248201527f4f776e61626c653a206e6577206f776e657220697320746865207a65726f206160448201526564647265737360d01b6064820152608401610336565b610d3e81610dbc565b50565b6000546001600160a01b031633146109205760405162461bcd60e51b815260206004820181905260248201527f4f776e61626c653a2063616c6c6572206973206e6f7420746865206f776e65726044820152606401610336565b600354600090610dac600184611000565b610db69190610fe9565b92915050565b600080546001600160a01b038381166001600160a01b0319831681178455604051919092169283917f8be0079c531659141344cd1fd0a4f28419497f9722a3daafe3b4186f6b6457e09190a35050565b600060208284031215610e1e57600080fd5b5035919050565b6001600160a01b0381168114610d3e57600080fd5b600060208284031215610e4c57600080fd5b8135610e5781610e25565b9392505050565b634e487b7160e01b600052601160045260246000fd5b81810381811115610db657610db6610e5e565b600060208284031215610e9957600080fd5b5051919050565b600060208284031215610eb257600080fd5b81518015158114610e5757600080fd5b80820180821115610db657610db6610e5e565b6020808252600f908201526e496e76616c6964206164647265737360881b604082015260600190565b634e487b7160e01b600052604160045260246000fd5b8051610f1f81610e25565b919050565b60006020808385031215610f3757600080fd5b825167ffffffffffffffff80821115610f4f57600080fd5b818501915085601f830112610f6357600080fd5b815181811115610f7557610f75610efe565b8060051b604051601f19603f83011681018181108582111715610f9a57610f9a610efe565b604052918252848201925083810185019188831115610fb857600080fd5b938501935b82851015610fdd57610fce85610f14565b84529385019392850192610fbd565b98975050505050505050565b8082028115828204841417610db657610db6610e5e565b60008261101d57634e487b7160e01b600052601260045260246000fd5b500490565b634e487b7160e01b600052603260045260246000fd5b60006001820161104a5761104a610e5e565b506001019056fea2646970667358221220ed23f0625ed88be83a59e21c9376a270bf92534e073a3d33e7bb5d48c4cc814b64736f6c63430008130033",
  "devdoc": {
    "kind": "dev",
    "methods": {
      "owner()": {
        "details": "Returns the address of the current owner."
      },
      "renounceOwnership()": {
        "details": "Leaves the contract without owner. It will not be possible to call `onlyOwner` functions. Can only be called by the current owner. NOTE: Renouncing ownership will leave the contract without an owner, thereby disabling any functionality that is only available to the owner."
      },
      "transferOwnership(address)": {
        "details": "Transfers ownership of the contract to a new account (`newOwner`). Can only be called by the current owner."
      }
    },
    "version": 1
  },
  "userdoc": {
    "kind": "user",
    "methods": {},
    "version": 1
  },
  "storageLayout": {
    "storage": [
      {
        "astId": 7,
        "contract": "contracts/Renting.sol:CarLeasing",
        "label": "_owner",
        "offset": 0,
        "slot": "0",
        "type": "t_address"
      },
      {
        "astId": 3064,
        "contract": "contracts/Renting.sol:CarLeasing",
        "label": "carNFT",
        "offset": 0,
        "slot": "1",
        "type": "t_contract(CARNFTInterface)3059"
      },
      {
        "astId": 3067,
        "contract": "contracts/Renting.sol:CarLeasing",
        "label": "paymentToken",
        "offset": 0,
        "slot": "2",
        "type": "t_contract(IERC20)2247"
      },
      {
        "astId": 3069,
        "contract": "contracts/Renting.sol:CarLeasing",
        "label": "rentalRatePerSecond",
        "offset": 0,
        "slot": "3",
        "type": "t_uint256"
      },
      {
        "astId": 3071,
        "contract": "contracts/Renting.sol:CarLeasing",
        "label": "rentWallet",
        "offset": 0,
        "slot": "4",
        "type": "t_address"
      },
      {
        "astId": 3083,
        "contract": "contracts/Renting.sol:CarLeasing",
        "label": "rentals",
        "offset": 0,
        "slot": "5",
        "type": "t_mapping(t_uint256,t_struct(Rental)3078_storage)"
      },
      {
        "astId": 3087,
        "contract": "contracts/Renting.sol:CarLeasing",
        "label": "earnings",
        "offset": 0,
        "slot": "6",
        "type": "t_mapping(t_uint256,t_uint256)"
      }
    ],
    "types": {
      "t_address": {
        "encoding": "inplace",
        "label": "address",
        "numberOfBytes": "20"
      },
      "t_bool": {
        "encoding": "inplace",
        "label": "bool",
        "numberOfBytes": "1"
      },
      "t_contract(CARNFTInterface)3059": {
        "encoding": "inplace",
        "label": "contract CARNFTInterface",
        "numberOfBytes": "20"
      },
      "t_contract(IERC20)2247": {
        "encoding": "inplace",
        "label": "contract IERC20",
        "numberOfBytes": "20"
      },
      "t_mapping(t_uint256,t_struct(Rental)3078_storage)": {
        "encoding": "mapping",
        "key": "t_uint256",
        "label": "mapping(uint256 => struct CarLeasing.Rental)",
        "numberOfBytes": "32",
        "value": "t_struct(Rental)3078_storage"
      },
      "t_mapping(t_uint256,t_uint256)": {
        "encoding": "mapping",
        "key": "t_uint256",
        "label": "mapping(uint256 => uint256)",
        "numberOfBytes": "32",
        "value": "t_uint256"
      },
      "t_struct(Rental)3078_storage": {
        "encoding": "inplace",
        "label": "struct CarLeasing.Rental",
        "members": [
          {
            "astId": 3073,
            "contract": "contracts/Renting.sol:CarLeasing",
            "label": "renter",
            "offset": 0,
            "slot": "0",
            "type": "t_address"
          },
          {
            "astId": 3075,
            "contract": "contracts/Renting.sol:CarLeasing",
            "label": "startTime",
            "offset": 0,
            "slot": "1",
            "type": "t_uint256"
          },
          {
            "astId": 3077,
            "contract": "contracts/Renting.sol:CarLeasing",
            "label": "isActive",
            "offset": 0,
            "slot": "2",
            "type": "t_bool"
          }
        ],
        "numberOfBytes": "96"
      },
      "t_uint256": {
        "encoding": "inplace",
        "label": "uint256",
        "numberOfBytes": "32"
      }
    }
  }
}