{
  "address": "0x2C0F17383672b951B8e9dc9Eec901EEAE6934617",
  "abi": [
    {
      "inputs": [
        {
          "internalType": "string",
          "name": "_name",
          "type": "string"
        },
        {
          "internalType": "string",
          "name": "_symbol",
          "type": "string"
        },
        {
          "internalType": "address",
          "name": "_initialOwner",
          "type": "address"
        }
      ],
      "stateMutability": "nonpayable",
      "type": "constructor"
    },
    {
      "anonymous": false,
      "inputs": [
        {
          "indexed": true,
          "internalType": "address",
          "name": "account",
          "type": "address"
        },
        {
          "indexed": true,
          "internalType": "address",
          "name": "operator",
          "type": "address"
        },
        {
          "indexed": false,
          "internalType": "bool",
          "name": "approved",
          "type": "bool"
        }
      ],
      "name": "ApprovalForAll",
      "type": "event"
    },
    {
      "anonymous": false,
      "inputs": [
        {
          "indexed": true,
          "internalType": "address",
          "name": "previousOwner",
          "type": "address"
        },
        {
          "indexed": true,
          "internalType": "address",
          "name": "newOwner",
          "type": "address"
        }
      ],
      "name": "OwnershipTransferred",
      "type": "event"
    },
    {
      "anonymous": false,
      "inputs": [
        {
          "indexed": true,
          "internalType": "address",
          "name": "operator",
          "type": "address"
        },
        {
          "indexed": true,
          "internalType": "address",
          "name": "from",
          "type": "address"
        },
        {
          "indexed": true,
          "internalType": "address",
          "name": "to",
          "type": "address"
        },
        {
          "indexed": false,
          "internalType": "uint256[]",
          "name": "ids",
          "type": "uint256[]"
        },
        {
          "indexed": false,
          "internalType": "uint256[]",
          "name": "values",
          "type": "uint256[]"
        }
      ],
      "name": "TransferBatch",
      "type": "event"
    },
    {
      "anonymous": false,
      "inputs": [
        {
          "indexed": true,
          "internalType": "address",
          "name": "operator",
          "type": "address"
        },
        {
          "indexed": true,
          "internalType": "address",
          "name": "from",
          "type": "address"
        },
        {
          "indexed": true,
          "internalType": "address",
          "name": "to",
          "type": "address"
        },
        {
          "indexed": false,
          "internalType": "uint256",
          "name": "id",
          "type": "uint256"
        },
        {
          "indexed": false,
          "internalType": "uint256",
          "name": "value",
          "type": "uint256"
        }
      ],
      "name": "TransferSingle",
      "type": "event"
    },
    {
      "anonymous": false,
      "inputs": [
        {
          "indexed": false,
          "internalType": "string",
          "name": "value",
          "type": "string"
        },
        {
          "indexed": true,
          "internalType": "uint256",
          "name": "id",
          "type": "uint256"
        }
      ],
      "name": "URI",
      "type": "event"
    },
    {
      "inputs": [],
      "name": "MAX_SUPPLY_PER_ID",
      "outputs": [
        {
          "internalType": "uint256",
          "name": "",
          "type": "uint256"
        }
      ],
      "stateMutability": "view",
      "type": "function"
    },
    {
      "inputs": [
        {
          "internalType": "address",
          "name": "account",
          "type": "address"
        },
        {
          "internalType": "uint256",
          "name": "id",
          "type": "uint256"
        }
      ],
      "name": "balanceOf",
      "outputs": [
        {
          "internalType": "uint256",
          "name": "",
          "type": "uint256"
        }
      ],
      "stateMutability": "view",
      "type": "function"
    },
    {
      "inputs": [
        {
          "internalType": "address[]",
          "name": "accounts",
          "type": "address[]"
        },
        {
          "internalType": "uint256[]",
          "name": "ids",
          "type": "uint256[]"
        }
      ],
      "name": "balanceOfBatch",
      "outputs": [
        {
          "internalType": "uint256[]",
          "name": "",
          "type": "uint256[]"
        }
      ],
      "stateMutability": "view",
      "type": "function"
    },
    {
      "inputs": [
        {
          "internalType": "address",
          "name": "account",
          "type": "address"
        },
        {
          "internalType": "uint256",
          "name": "id",
          "type": "uint256"
        },
        {
          "internalType": "uint256",
          "name": "value",
          "type": "uint256"
        }
      ],
      "name": "burn",
      "outputs": [],
      "stateMutability": "nonpayable",
      "type": "function"
    },
    {
      "inputs": [
        {
          "internalType": "address",
          "name": "account",
          "type": "address"
        },
        {
          "internalType": "uint256[]",
          "name": "ids",
          "type": "uint256[]"
        },
        {
          "internalType": "uint256[]",
          "name": "values",
          "type": "uint256[]"
        }
      ],
      "name": "burnBatch",
      "outputs": [],
      "stateMutability": "nonpayable",
      "type": "function"
    },
    {
      "inputs": [
        {
          "internalType": "address",
          "name": "account",
          "type": "address"
        },
        {
          "internalType": "address",
          "name": "operator",
          "type": "address"
        }
      ],
      "name": "isApprovedForAll",
      "outputs": [
        {
          "internalType": "bool",
          "name": "",
          "type": "bool"
        }
      ],
      "stateMutability": "view",
      "type": "function"
    },
    {
      "inputs": [
        {
          "internalType": "address",
          "name": "account",
          "type": "address"
        },
        {
          "internalType": "uint256",
          "name": "id",
          "type": "uint256"
        },
        {
          "internalType": "uint256",
          "name": "amount",
          "type": "uint256"
        },
        {
          "internalType": "bytes",
          "name": "data",
          "type": "bytes"
        }
      ],
      "name": "mint",
      "outputs": [],
      "stateMutability": "nonpayable",
      "type": "function"
    },
    {
      "inputs": [],
      "name": "name",
      "outputs": [
        {
          "internalType": "string",
          "name": "",
          "type": "string"
        }
      ],
      "stateMutability": "view",
      "type": "function"
    },
    {
      "inputs": [],
      "name": "owner",
      "outputs": [
        {
          "internalType": "address",
          "name": "",
          "type": "address"
        }
      ],
      "stateMutability": "view",
      "type": "function"
    },
    {
      "inputs": [
        {
          "internalType": "uint256",
          "name": "id",
          "type": "uint256"
        }
      ],
      "name": "ownersOf",
      "outputs": [
        {
          "internalType": "address[]",
          "name": "",
          "type": "address[]"
        }
      ],
      "stateMutability": "view",
      "type": "function"
    },
    {
      "inputs": [],
      "name": "renounceOwnership",
      "outputs": [],
      "stateMutability": "nonpayable",
      "type": "function"
    },
    {
      "inputs": [
        {
          "internalType": "address",
          "name": "from",
          "type": "address"
        },
        {
          "internalType": "address",
          "name": "to",
          "type": "address"
        },
        {
          "internalType": "uint256[]",
          "name": "ids",
          "type": "uint256[]"
        },
        {
          "internalType": "uint256[]",
          "name": "amounts",
          "type": "uint256[]"
        },
        {
          "internalType": "bytes",
          "name": "data",
          "type": "bytes"
        }
      ],
      "name": "safeBatchTransferFrom",
      "outputs": [],
      "stateMutability": "nonpayable",
      "type": "function"
    },
    {
      "inputs": [
        {
          "internalType": "address",
          "name": "from",
          "type": "address"
        },
        {
          "internalType": "address",
          "name": "to",
          "type": "address"
        },
        {
          "internalType": "uint256",
          "name": "id",
          "type": "uint256"
        },
        {
          "internalType": "uint256",
          "name": "amount",
          "type": "uint256"
        },
        {
          "internalType": "bytes",
          "name": "data",
          "type": "bytes"
        }
      ],
      "name": "safeTransferFrom",
      "outputs": [],
      "stateMutability": "nonpayable",
      "type": "function"
    },
    {
      "inputs": [
        {
          "internalType": "address",
          "name": "operator",
          "type": "address"
        },
        {
          "internalType": "bool",
          "name": "approved",
          "type": "bool"
        }
      ],
      "name": "setApprovalForAll",
      "outputs": [],
      "stateMutability": "nonpayable",
      "type": "function"
    },
    {
      "inputs": [
        {
          "internalType": "uint256",
          "name": "_id",
          "type": "uint256"
        },
        {
          "internalType": "string",
          "name": "_uri",
          "type": "string"
        }
      ],
      "name": "setURI",
      "outputs": [],
      "stateMutability": "nonpayable",
      "type": "function"
    },
    {
      "inputs": [
        {
          "internalType": "bytes4",
          "name": "interfaceId",
          "type": "bytes4"
        }
      ],
      "name": "supportsInterface",
      "outputs": [
        {
          "internalType": "bool",
          "name": "",
          "type": "bool"
        }
      ],
      "stateMutability": "view",
      "type": "function"
    },
    {
      "inputs": [],
      "name": "symbol",
      "outputs": [
        {
          "internalType": "string",
          "name": "",
          "type": "string"
        }
      ],
      "stateMutability": "view",
      "type": "function"
    },
    {
      "inputs": [
        {
          "internalType": "uint256",
          "name": "",
          "type": "uint256"
        }
      ],
      "name": "tokenURI",
      "outputs": [
        {
          "internalType": "string",
          "name": "",
          "type": "string"
        }
      ],
      "stateMutability": "view",
      "type": "function"
    },
    {
      "inputs": [
        {
          "internalType": "uint256",
          "name": "",
          "type": "uint256"
        }
      ],
      "name": "totalSupply",
      "outputs": [
        {
          "internalType": "uint256",
          "name": "",
          "type": "uint256"
        }
      ],
      "stateMutability": "view",
      "type": "function"
    },
    {
      "inputs": [
        {
          "internalType": "address",
          "name": "newOwner",
          "type": "address"
        }
      ],
      "name": "transferOwnership",
      "outputs": [],
      "stateMutability": "nonpayable",
      "type": "function"
    },
    {
      "inputs": [
        {
          "internalType": "uint256",
          "name": "_id",
          "type": "uint256"
        }
      ],
      "name": "uri",
      "outputs": [
        {
          "internalType": "string",
          "name": "",
          "type": "string"
        }
      ],
      "stateMutability": "view",
      "type": "function"
    }
  ],
  "transactionHash": "0x7aa923cbe9588c592503468d4e0499ece2c2a9aa4c3054410cb3a3bd5d1d740b",
  "args": [
    "SolidLuxuryNFT",
    "SLNFT",
    "0xfCc69429171854F1E3Ef4cBF99d035815Ca7f5fB"
  ],
  "numDeployments": 2,
  "solcInputHash": "8a72f0ea66185cde9674ccfd552f503e",
  "bytecode": "0x60806040523480156200001157600080fd5b50604051620027f3380380620027f3833981016040819052620000349162000296565b6040805160208101909152600081526200004e816200008c565b506200005a336200009e565b6009620000688482620003b2565b50600a620000778382620003b2565b506200008381620000f0565b5050506200047e565b60026200009a8282620003b2565b5050565b600380546001600160a01b038381166001600160a01b0319831681179093556040519116919082907f8be0079c531659141344cd1fd0a4f28419497f9722a3daafe3b4186f6b6457e090600090a35050565b620000fa62000173565b6001600160a01b038116620001655760405162461bcd60e51b815260206004820152602660248201527f4f776e61626c653a206e6577206f776e657220697320746865207a65726f206160448201526564647265737360d01b60648201526084015b60405180910390fd5b62000170816200009e565b50565b6003546001600160a01b03163314620001cf5760405162461bcd60e51b815260206004820181905260248201527f4f776e61626c653a2063616c6c6572206973206e6f7420746865206f776e657260448201526064016200015c565b565b634e487b7160e01b600052604160045260246000fd5b600082601f830112620001f957600080fd5b81516001600160401b0380821115620002165762000216620001d1565b604051601f8301601f19908116603f01168101908282118183101715620002415762000241620001d1565b816040528381526020925086838588010111156200025e57600080fd5b600091505b8382101562000282578582018301518183018401529082019062000263565b600093810190920192909252949350505050565b600080600060608486031215620002ac57600080fd5b83516001600160401b0380821115620002c457600080fd5b620002d287838801620001e7565b94506020860151915080821115620002e957600080fd5b50620002f886828701620001e7565b604086015190935090506001600160a01b03811681146200031857600080fd5b809150509250925092565b600181811c908216806200033857607f821691505b6020821081036200035957634e487b7160e01b600052602260045260246000fd5b50919050565b601f821115620003ad57600081815260208120601f850160051c81016020861015620003885750805b601f850160051c820191505b81811015620003a95782815560010162000394565b5050505b505050565b81516001600160401b03811115620003ce57620003ce620001d1565b620003e681620003df845462000323565b846200035f565b602080601f8311600181146200041e5760008415620004055750858301515b600019600386901b1c1916600185901b178555620003a9565b600085815260208120601f198616915b828110156200044f578886015182559484019460019091019084016200042e565b50858210156200046e5787850151600019600388901b60f8161c191681555b5050505050600190811b01905550565b612365806200048e6000396000f3fe608060405234801561001057600080fd5b50600436106101365760003560e01c80638da5cb5b116100b8578063c87b56dd1161007c578063c87b56dd14610298578063cbb2e55e146102ab578063e985e9c5146102b3578063f242432a146102ef578063f2fde38b14610302578063f5298aca1461031557600080fd5b80638da5cb5b1461022257806395d89b411461023d578063a22cb46514610245578063a584ab2914610258578063bd85b0391461027857600080fd5b80634e1273f4116100ff5780634e1273f4146101c15780636b20c454146101e1578063715018a6146101f4578063731133e9146101fc578063862440e21461020f57600080fd5b8062fdd58e1461013b57806301ffc9a71461016157806306fdde03146101845780630e89341c146101995780632eb2c2d6146101ac575b600080fd5b61014e610149366004611762565b610328565b6040519081526020015b60405180910390f35b61017461016f3660046117a2565b610352565b6040519015158152602001610158565b61018c6103a2565b604051610158919061180c565b61018c6101a736600461181f565b610430565b6101bf6101ba36600461198e565b6104d2565b005b6101d46101cf366004611a38565b610527565b6040516101589190611b3e565b6101bf6101ef366004611b51565b610651565b6101bf610699565b6101bf61020a366004611bc5565b6106ad565b6101bf61021d366004611c26565b61075a565b6003546040516001600160a01b039091168152602001610158565b61018c6107b7565b6101bf610253366004611c77565b6107c4565b61026b61026636600461181f565b6107d3565b6040516101589190611cb3565b61014e61028636600461181f565b60056020526000908152604090205481565b61018c6102a636600461181f565b61083e565b61014e600a81565b6101746102c1366004611d00565b6001600160a01b03918216600090815260016020908152604080832093909416825291909152205460ff1690565b6101bf6102fd366004611d33565b610857565b6101bf610310366004611d98565b61089c565b6101bf610323366004611db3565b610915565b60008181526006602090815260408083206001600160a01b03861684529091529020545b92915050565b60006001600160e01b03198216636cdb3d1360e11b148061038357506001600160e01b031982166303a24d0760e21b145b8061034c57506301ffc9a760e01b6001600160e01b031983161461034c565b600980546103af90611de6565b80601f01602080910402602001604051908101604052809291908181526020018280546103db90611de6565b80156104285780601f106103fd57610100808354040283529160200191610428565b820191906000526020600020905b81548152906001019060200180831161040b57829003601f168201915b505050505081565b600081815260046020526040902080546060919061044d90611de6565b80601f016020809104026020016040519081016040528092919081815260200182805461047990611de6565b80156104c65780601f1061049b576101008083540402835291602001916104c6565b820191906000526020600020905b8154815290600101906020018083116104a957829003601f168201915b50505050509050919050565b6001600160a01b0385163314806104ee57506104ee85336102c1565b6105135760405162461bcd60e51b815260040161050a90611e20565b60405180910390fd5b6105208585858585610958565b5050505050565b6060815183511461058c5760405162461bcd60e51b815260206004820152602960248201527f455243313135353a206163636f756e747320616e6420696473206c656e677468604482015268040dad2e6dac2e8c6d60bb1b606482015260840161050a565b6000835167ffffffffffffffff8111156105a8576105a8611838565b6040519080825280602002602001820160405280156105d1578160200160208202803683370190505b50905060005b84518110156106495761061c8582815181106105f5576105f5611e6e565b602002602001015185838151811061060f5761060f611e6e565b6020026020010151610328565b82828151811061062e5761062e611e6e565b602090810291909101015261064281611e9a565b90506105d7565b509392505050565b6001600160a01b03831633148061066d575061066d83336102c1565b6106895760405162461bcd60e51b815260040161050a90611e20565b610694838383610af4565b505050565b6106a1610c7e565b6106ab6000610cd8565b565b6106b5610c7e565b600083815260056020526040902054600a906106d2908490611eb3565b11156107195760405162461bcd60e51b8152602060048201526016602482015275135a5b9d1a5b99c81b1a5b5a5d08195e18d95959195960521b604482015260640161050a565b60008381526005602052604081208054849290610737908490611eb3565b90915550610749905084848484610d2a565b610754838584610e3e565b50505050565b610762610c7e565b600082815260046020526040902061077a8282611f0c565b50817f6bb7ff708619ba0610cba295a58592e0451dee2622938c8755667688daf3529b826040516107ab919061180c565b60405180910390a25050565b600a80546103af90611de6565b6107cf338383610f00565b5050565b6000818152600760209081526040918290208054835181840281018401909452808452606093928301828280156104c657602002820191906000526020600020905b81546001600160a01b031681526001909101906020018083116108155750505050509050919050565b600460205260009081526040902080546103af90611de6565b6001600160a01b038516331480610873575061087385336102c1565b61088f5760405162461bcd60e51b815260040161050a90611e20565b6105208585858585610fe0565b6108a4610c7e565b6001600160a01b0381166109095760405162461bcd60e51b815260206004820152602660248201527f4f776e61626c653a206e6577206f776e657220697320746865207a65726f206160448201526564647265737360d01b606482015260840161050a565b61091281610cd8565b50565b6001600160a01b038316331480610931575061093183336102c1565b61094d5760405162461bcd60e51b815260040161050a90611e20565b610694838383611139565b81518351146109795760405162461bcd60e51b815260040161050a90611fcc565b6001600160a01b03841661099f5760405162461bcd60e51b815260040161050a90612014565b3360005b8451811015610a865760008582815181106109c0576109c0611e6e565b6020026020010151905060008583815181106109de576109de611e6e565b602090810291909101810151600084815280835260408082206001600160a01b038e168352909352919091205490915081811015610a2e5760405162461bcd60e51b815260040161050a90612059565b6000838152602081815260408083206001600160a01b038e8116855292528083208585039055908b16825281208054849290610a6b908490611eb3565b9250508190555050505080610a7f90611e9a565b90506109a3565b50846001600160a01b0316866001600160a01b0316826001600160a01b03167f4a39dc06d4c0dbc64b70af90fd698a233a518aa5d07e595d983b8c0526c8f7fb8787604051610ad69291906120a3565b60405180910390a4610aec81878787878761123d565b505050505050565b6001600160a01b038316610b1a5760405162461bcd60e51b815260040161050a906120d1565b8051825114610b3b5760405162461bcd60e51b815260040161050a90611fcc565b604080516020810190915260009081905233905b8351811015610c11576000848281518110610b6c57610b6c611e6e565b602002602001015190506000848381518110610b8a57610b8a611e6e565b602090810291909101810151600084815280835260408082206001600160a01b038c168352909352919091205490915081811015610bda5760405162461bcd60e51b815260040161050a90612114565b6000928352602083815260408085206001600160a01b038b1686529091529092209103905580610c0981611e9a565b915050610b4f565b5060006001600160a01b0316846001600160a01b0316826001600160a01b03167f4a39dc06d4c0dbc64b70af90fd698a233a518aa5d07e595d983b8c0526c8f7fb8686604051610c629291906120a3565b60405180910390a4604080516020810190915260009052610754565b6003546001600160a01b031633146106ab5760405162461bcd60e51b815260206004820181905260248201527f4f776e61626c653a2063616c6c6572206973206e6f7420746865206f776e6572604482015260640161050a565b600380546001600160a01b038381166001600160a01b0319831681179093556040519116919082907f8be0079c531659141344cd1fd0a4f28419497f9722a3daafe3b4186f6b6457e090600090a35050565b6001600160a01b038416610d8a5760405162461bcd60e51b815260206004820152602160248201527f455243313135353a206d696e7420746f20746865207a65726f206164647265736044820152607360f81b606482015260840161050a565b336000610d9685611398565b90506000610da385611398565b90506000868152602081815260408083206001600160a01b038b16845290915281208054879290610dd5908490611eb3565b909155505060408051878152602081018790526001600160a01b03808a1692600092918716917fc3d58168c5ae7397731d063d5bbf3d657854427343f4c083240f7aacaa2d0f62910160405180910390a4610e35836000898989896113e3565b50505050505050565b60008381526008602090815260408083206001600160a01b038616845290915290205460ff16610ec45760008381526007602090815260408083208054600180820183559185528385200180546001600160a01b0319166001600160a01b03881690811790915587855260088452828520908552909252909120805460ff191690911790555b60008381526006602090815260408083206001600160a01b038616845290915281208054839290610ef6908490611eb3565b9091555050505050565b816001600160a01b0316836001600160a01b031603610f735760405162461bcd60e51b815260206004820152602960248201527f455243313135353a2073657474696e6720617070726f76616c20737461747573604482015268103337b91039b2b63360b91b606482015260840161050a565b6001600160a01b03838116600081815260016020908152604080832094871680845294825291829020805460ff191686151590811790915591519182527f17307eab39ab6107e8899845ad3d59bd9653f200f220920489ca2b5937696c31910160405180910390a3505050565b610fed858585858561149e565b6001600160a01b038516156110665760008381526006602090815260408083206001600160a01b03891684529091528120805484929061102e908490612158565b909155505060008381526006602090815260408083206001600160a01b038916845290915281205490036110665761106683866115c8565b6001600160a01b038416156105205760008381526008602090815260408083206001600160a01b038816845290915290205460ff166110fb5760008381526007602090815260408083208054600180820183559185528385200180546001600160a01b0319166001600160a01b038a1690811790915587855260088452828520908552909252909120805460ff191690911790555b60008381526006602090815260408083206001600160a01b03881684529091528120805484929061112d908490611eb3565b90915550505050505050565b6001600160a01b03831661115f5760405162461bcd60e51b815260040161050a906120d1565b33600061116b84611398565b9050600061117884611398565b60408051602080820183526000918290528882528181528282206001600160a01b038b16835290522054909150848110156111c55760405162461bcd60e51b815260040161050a90612114565b6000868152602081815260408083206001600160a01b038b81168086529184528285208a8703905582518b81529384018a90529092908816917fc3d58168c5ae7397731d063d5bbf3d657854427343f4c083240f7aacaa2d0f62910160405180910390a4604080516020810190915260009052610e35565b6001600160a01b0384163b15610aec5760405163bc197c8160e01b81526001600160a01b0385169063bc197c8190611281908990899088908890889060040161216b565b6020604051808303816000875af19250505080156112bc575060408051601f3d908101601f191682019092526112b9918101906121c9565b60015b611368576112c86121e6565b806308c379a00361130157506112dc612202565b806112e75750611303565b8060405162461bcd60e51b815260040161050a919061180c565b505b60405162461bcd60e51b815260206004820152603460248201527f455243313135353a207472616e7366657220746f206e6f6e2d455243313135356044820152732932b1b2b4bb32b91034b6b83632b6b2b73a32b960611b606482015260840161050a565b6001600160e01b0319811663bc197c8160e01b14610e355760405162461bcd60e51b815260040161050a9061228c565b604080516001808252818301909252606091600091906020808301908036833701905050905082816000815181106113d2576113d2611e6e565b602090810291909101015292915050565b6001600160a01b0384163b15610aec5760405163f23a6e6160e01b81526001600160a01b0385169063f23a6e619061142790899089908890889088906004016122d4565b6020604051808303816000875af1925050508015611462575060408051601f3d908101601f1916820190925261145f918101906121c9565b60015b61146e576112c86121e6565b6001600160e01b0319811663f23a6e6160e01b14610e355760405162461bcd60e51b815260040161050a9061228c565b6001600160a01b0384166114c45760405162461bcd60e51b815260040161050a90612014565b3360006114d085611398565b905060006114dd85611398565b90506000868152602081815260408083206001600160a01b038c168452909152902054858110156115205760405162461bcd60e51b815260040161050a90612059565b6000878152602081815260408083206001600160a01b038d8116855292528083208985039055908a1682528120805488929061155d908490611eb3565b909155505060408051888152602081018890526001600160a01b03808b16928c821692918816917fc3d58168c5ae7397731d063d5bbf3d657854427343f4c083240f7aacaa2d0f62910160405180910390a46115bd848a8a8a8a8a6113e3565b505050505050505050565b60008281526008602090815260408083206001600160a01b038516845290915290205460ff16156107cf5760008281526006602090815260408083206001600160a01b038516808552908352818420849055858452600883528184209084528252808320805460ff1916905584835260079091528120905b815481101561075457826001600160a01b031682828154811061166557611665611e6e565b6000918252602090912001546001600160a01b031603611734578154829061168f90600190612158565b8154811061169f5761169f611e6e565b9060005260206000200160009054906101000a90046001600160a01b03168282815481106116cf576116cf611e6e565b9060005260206000200160006101000a8154816001600160a01b0302191690836001600160a01b031602179055508180548061170d5761170d612319565b600082815260209020810160001990810180546001600160a01b0319169055019055610754565b8061173e81611e9a565b915050611640565b80356001600160a01b038116811461175d57600080fd5b919050565b6000806040838503121561177557600080fd5b61177e83611746565b946020939093013593505050565b6001600160e01b03198116811461091257600080fd5b6000602082840312156117b457600080fd5b81356117bf8161178c565b9392505050565b6000815180845260005b818110156117ec576020818501810151868301820152016117d0565b506000602082860101526020601f19601f83011685010191505092915050565b6020815260006117bf60208301846117c6565b60006020828403121561183157600080fd5b5035919050565b634e487b7160e01b600052604160045260246000fd5b601f8201601f1916810167ffffffffffffffff8111828210171561187457611874611838565b6040525050565b600067ffffffffffffffff82111561189557611895611838565b5060051b60200190565b600082601f8301126118b057600080fd5b813560206118bd8261187b565b6040516118ca828261184e565b83815260059390931b85018201928281019150868411156118ea57600080fd5b8286015b8481101561190557803583529183019183016118ee565b509695505050505050565b600067ffffffffffffffff83111561192a5761192a611838565b604051611941601f8501601f19166020018261184e565b80915083815284848401111561195657600080fd5b83836020830137600060208583010152509392505050565b600082601f83011261197f57600080fd5b6117bf83833560208501611910565b600080600080600060a086880312156119a657600080fd5b6119af86611746565b94506119bd60208701611746565b9350604086013567ffffffffffffffff808211156119da57600080fd5b6119e689838a0161189f565b945060608801359150808211156119fc57600080fd5b611a0889838a0161189f565b93506080880135915080821115611a1e57600080fd5b50611a2b8882890161196e565b9150509295509295909350565b60008060408385031215611a4b57600080fd5b823567ffffffffffffffff80821115611a6357600080fd5b818501915085601f830112611a7757600080fd5b81356020611a848261187b565b604051611a91828261184e565b83815260059390931b8501820192828101915089841115611ab157600080fd5b948201945b83861015611ad657611ac786611746565b82529482019490820190611ab6565b96505086013592505080821115611aec57600080fd5b50611af98582860161189f565b9150509250929050565b600081518084526020808501945080840160005b83811015611b3357815187529582019590820190600101611b17565b509495945050505050565b6020815260006117bf6020830184611b03565b600080600060608486031215611b6657600080fd5b611b6f84611746565b9250602084013567ffffffffffffffff80821115611b8c57600080fd5b611b988783880161189f565b93506040860135915080821115611bae57600080fd5b50611bbb8682870161189f565b9150509250925092565b60008060008060808587031215611bdb57600080fd5b611be485611746565b93506020850135925060408501359150606085013567ffffffffffffffff811115611c0e57600080fd5b611c1a8782880161196e565b91505092959194509250565b60008060408385031215611c3957600080fd5b82359150602083013567ffffffffffffffff811115611c5757600080fd5b8301601f81018513611c6857600080fd5b611af985823560208401611910565b60008060408385031215611c8a57600080fd5b611c9383611746565b915060208301358015158114611ca857600080fd5b809150509250929050565b6020808252825182820181905260009190848201906040850190845b81811015611cf45783516001600160a01b031683529284019291840191600101611ccf565b50909695505050505050565b60008060408385031215611d1357600080fd5b611d1c83611746565b9150611d2a60208401611746565b90509250929050565b600080600080600060a08688031215611d4b57600080fd5b611d5486611746565b9450611d6260208701611746565b93506040860135925060608601359150608086013567ffffffffffffffff811115611d8c57600080fd5b611a2b8882890161196e565b600060208284031215611daa57600080fd5b6117bf82611746565b600080600060608486031215611dc857600080fd5b611dd184611746565b95602085013595506040909401359392505050565b600181811c90821680611dfa57607f821691505b602082108103611e1a57634e487b7160e01b600052602260045260246000fd5b50919050565b6020808252602e908201527f455243313135353a2063616c6c6572206973206e6f7420746f6b656e206f776e60408201526d195c881bdc88185c1c1c9bdd995960921b606082015260800190565b634e487b7160e01b600052603260045260246000fd5b634e487b7160e01b600052601160045260246000fd5b600060018201611eac57611eac611e84565b5060010190565b8082018082111561034c5761034c611e84565b601f82111561069457600081815260208120601f850160051c81016020861015611eed5750805b601f850160051c820191505b81811015610aec57828155600101611ef9565b815167ffffffffffffffff811115611f2657611f26611838565b611f3a81611f348454611de6565b84611ec6565b602080601f831160018114611f6f5760008415611f575750858301515b600019600386901b1c1916600185901b178555610aec565b600085815260208120601f198616915b82811015611f9e57888601518255948401946001909101908401611f7f565b5085821015611fbc5787850151600019600388901b60f8161c191681555b5050505050600190811b01905550565b60208082526028908201527f455243313135353a2069647320616e6420616d6f756e7473206c656e677468206040820152670dad2e6dac2e8c6d60c31b606082015260800190565b60208082526025908201527f455243313135353a207472616e7366657220746f20746865207a65726f206164604082015264647265737360d81b606082015260800190565b6020808252602a908201527f455243313135353a20696e73756666696369656e742062616c616e636520666f60408201526939103a3930b739b332b960b11b606082015260800190565b6040815260006120b66040830185611b03565b82810360208401526120c88185611b03565b95945050505050565b60208082526023908201527f455243313135353a206275726e2066726f6d20746865207a65726f206164647260408201526265737360e81b606082015260800190565b60208082526024908201527f455243313135353a206275726e20616d6f756e7420657863656564732062616c604082015263616e636560e01b606082015260800190565b8181038181111561034c5761034c611e84565b6001600160a01b0386811682528516602082015260a06040820181905260009061219790830186611b03565b82810360608401526121a98186611b03565b905082810360808401526121bd81856117c6565b98975050505050505050565b6000602082840312156121db57600080fd5b81516117bf8161178c565b600060033d11156121ff5760046000803e5060005160e01c5b90565b600060443d10156122105790565b6040516003193d81016004833e81513d67ffffffffffffffff816024840111818411171561224057505050505090565b82850191508151818111156122585750505050505090565b843d87010160208285010111156122725750505050505090565b6122816020828601018761184e565b509095945050505050565b60208082526028908201527f455243313135353a204552433131353552656365697665722072656a656374656040820152676420746f6b656e7360c01b606082015260800190565b6001600160a01b03868116825285166020820152604081018490526060810183905260a06080820181905260009061230e908301846117c6565b979650505050505050565b634e487b7160e01b600052603160045260246000fdfea2646970667358221220fc7b0c9d0c8ad599cc656f3680918b56d8648a2adeea9f7ce938cfa50a1983a664736f6c63430008130033",
  "devdoc": {
    "events": {
      "ApprovalForAll(address,address,bool)": {
        "details": "Emitted when `account` grants or revokes permission to `operator` to transfer their tokens, according to `approved`."
      },
      "TransferBatch(address,address,address,uint256[],uint256[])": {
        "details": "Equivalent to multiple {TransferSingle} events, where `operator`, `from` and `to` are the same for all transfers."
      },
      "TransferSingle(address,address,address,uint256,uint256)": {
        "details": "Emitted when `value` tokens of token type `id` are transferred from `from` to `to` by `operator`."
      },
      "URI(string,uint256)": {
        "details": "Emitted when the URI for token type `id` changes to `value`, if it is a non-programmatic URI. If an {URI} event was emitted for `id`, the standard https://eips.ethereum.org/EIPS/eip-1155#metadata-extensions[guarantees] that `value` will equal the value returned by {IERC1155MetadataURI-uri}."
      }
    },
    "kind": "dev",
    "methods": {
      "balanceOf(address,uint256)": {
        "details": "See {IERC1155-balanceOf}. Requirements: - `account` cannot be the zero address."
      },
      "balanceOfBatch(address[],uint256[])": {
        "details": "See {IERC1155-balanceOfBatch}. Requirements: - `accounts` and `ids` must have the same length."
      },
      "isApprovedForAll(address,address)": {
        "details": "See {IERC1155-isApprovedForAll}."
      },
      "owner()": {
        "details": "Returns the address of the current owner."
      },
      "renounceOwnership()": {
        "details": "Leaves the contract without owner. It will not be possible to call `onlyOwner` functions. Can only be called by the current owner. NOTE: Renouncing ownership will leave the contract without an owner, thereby disabling any functionality that is only available to the owner."
      },
      "safeBatchTransferFrom(address,address,uint256[],uint256[],bytes)": {
        "details": "See {IERC1155-safeBatchTransferFrom}."
      },
      "safeTransferFrom(address,address,uint256,uint256,bytes)": {
        "details": "See {IERC1155-safeTransferFrom}."
      },
      "setApprovalForAll(address,bool)": {
        "details": "See {IERC1155-setApprovalForAll}."
      },
      "supportsInterface(bytes4)": {
        "details": "See {IERC165-supportsInterface}."
      },
      "transferOwnership(address)": {
        "details": "Transfers ownership of the contract to a new account (`newOwner`). Can only be called by the current owner."
      }
    },
    "version": 1
  },
  "userdoc": {
    "kind": "user",
    "methods": {},
    "version": 1
  },
  "storageLayout": {
    "storage": [
      {
        "astId": 138,
        "contract": "contracts/CARNFT.sol:SolidLuxuryNFT",
        "label": "_balances",
        "offset": 0,
        "slot": "0",
        "type": "t_mapping(t_uint256,t_mapping(t_address,t_uint256))"
      },
      {
        "astId": 144,
        "contract": "contracts/CARNFT.sol:SolidLuxuryNFT",
        "label": "_operatorApprovals",
        "offset": 0,
        "slot": "1",
        "type": "t_mapping(t_address,t_mapping(t_address,t_bool))"
      },
      {
        "astId": 146,
        "contract": "contracts/CARNFT.sol:SolidLuxuryNFT",
        "label": "_uri",
        "offset": 0,
        "slot": "2",
        "type": "t_string_storage"
      },
      {
        "astId": 7,
        "contract": "contracts/CARNFT.sol:SolidLuxuryNFT",
        "label": "_owner",
        "offset": 0,
        "slot": "3",
        "type": "t_address"
      },
      {
        "astId": 1993,
        "contract": "contracts/CARNFT.sol:SolidLuxuryNFT",
        "label": "tokenURI",
        "offset": 0,
        "slot": "4",
        "type": "t_mapping(t_uint256,t_string_storage)"
      },
      {
        "astId": 1997,
        "contract": "contracts/CARNFT.sol:SolidLuxuryNFT",
        "label": "totalSupply",
        "offset": 0,
        "slot": "5",
        "type": "t_mapping(t_uint256,t_uint256)"
      },
      {
        "astId": 2003,
        "contract": "contracts/CARNFT.sol:SolidLuxuryNFT",
        "label": "_balances",
        "offset": 0,
        "slot": "6",
        "type": "t_mapping(t_uint256,t_mapping(t_address,t_uint256))"
      },
      {
        "astId": 2008,
        "contract": "contracts/CARNFT.sol:SolidLuxuryNFT",
        "label": "_owners",
        "offset": 0,
        "slot": "7",
        "type": "t_mapping(t_uint256,t_array(t_address)dyn_storage)"
      },
      {
        "astId": 2014,
        "contract": "contracts/CARNFT.sol:SolidLuxuryNFT",
        "label": "_ownerExists",
        "offset": 0,
        "slot": "8",
        "type": "t_mapping(t_uint256,t_mapping(t_address,t_bool))"
      },
      {
        "astId": 2016,
        "contract": "contracts/CARNFT.sol:SolidLuxuryNFT",
        "label": "name",
        "offset": 0,
        "slot": "9",
        "type": "t_string_storage"
      },
      {
        "astId": 2018,
        "contract": "contracts/CARNFT.sol:SolidLuxuryNFT",
        "label": "symbol",
        "offset": 0,
        "slot": "10",
        "type": "t_string_storage"
      }
    ],
    "types": {
      "t_address": {
        "encoding": "inplace",
        "label": "address",
        "numberOfBytes": "20"
      },
      "t_array(t_address)dyn_storage": {
        "base": "t_address",
        "encoding": "dynamic_array",
        "label": "address[]",
        "numberOfBytes": "32"
      },
      "t_bool": {
        "encoding": "inplace",
        "label": "bool",
        "numberOfBytes": "1"
      },
      "t_mapping(t_address,t_bool)": {
        "encoding": "mapping",
        "key": "t_address",
        "label": "mapping(address => bool)",
        "numberOfBytes": "32",
        "value": "t_bool"
      },
      "t_mapping(t_address,t_mapping(t_address,t_bool))": {
        "encoding": "mapping",
        "key": "t_address",
        "label": "mapping(address => mapping(address => bool))",
        "numberOfBytes": "32",
        "value": "t_mapping(t_address,t_bool)"
      },
      "t_mapping(t_address,t_uint256)": {
        "encoding": "mapping",
        "key": "t_address",
        "label": "mapping(address => uint256)",
        "numberOfBytes": "32",
        "value": "t_uint256"
      },
      "t_mapping(t_uint256,t_array(t_address)dyn_storage)": {
        "encoding": "mapping",
        "key": "t_uint256",
        "label": "mapping(uint256 => address[])",
        "numberOfBytes": "32",
        "value": "t_array(t_address)dyn_storage"
      },
      "t_mapping(t_uint256,t_mapping(t_address,t_bool))": {
        "encoding": "mapping",
        "key": "t_uint256",
        "label": "mapping(uint256 => mapping(address => bool))",
        "numberOfBytes": "32",
        "value": "t_mapping(t_address,t_bool)"
      },
      "t_mapping(t_uint256,t_mapping(t_address,t_uint256))": {
        "encoding": "mapping",
        "key": "t_uint256",
        "label": "mapping(uint256 => mapping(address => uint256))",
        "numberOfBytes": "32",
        "value": "t_mapping(t_address,t_uint256)"
      },
      "t_mapping(t_uint256,t_string_storage)": {
        "encoding": "mapping",
        "key": "t_uint256",
        "label": "mapping(uint256 => string)",
        "numberOfBytes": "32",
        "value": "t_string_storage"
      },
      "t_mapping(t_uint256,t_uint256)": {
        "encoding": "mapping",
        "key": "t_uint256",
        "label": "mapping(uint256 => uint256)",
        "numberOfBytes": "32",
        "value": "t_uint256"
      },
      "t_string_storage": {
        "encoding": "bytes",
        "label": "string",
        "numberOfBytes": "32"
      },
      "t_uint256": {
        "encoding": "inplace",
        "label": "uint256",
        "numberOfBytes": "32"
      }
    }
  }
}